:10000000A3EF02F0000000003BEF02F00000000050
:0C001000000000000000000069EF03F099
:0A001C001D0E0D6E0D2EFED7120012
:10002600830EC2165FC000F00036009000360090C6
:100036000050C212F0DFC282C2A201D0FDD7C4CFE7
:0E00460001F0006AC3500012000E01121200F9
:10005400040E5F6EE6DF00C03EF001C03FF0050E07
:100064005F6EDFDF00C040F001C041F0060E5F6E3E
:10007400D8DF00C042F001C043F0070E5F6ED1DF4D
:0A00840000C044F001C045F0120076
:10008E00FF0E526EFF0E536EFF0E546EFF0E556E28
:10009E00FF0E5A6EFF0E5B6E000E5C6E000E5D6EF6
:1000AE00FF0E566EFF0E576E000E586E000E596EF6
:1000BE00FF0E4E6EFF0E4F6E000E506E000E516E06
:1000CE00AC8A900EAB6E938A938E9EAA03D0AECF5F
:0600DE0000F0FBD7120048
:1000E4005E6A306A5E6A040E5E5C1BE25EC000F00B
:1000F400000E016E0036009001363E0E0024E96EBB
:10010400000E0120EA6EEECF01F0EECF02F0020EF7
:10011400025C02E1990E015C02E2010E306E5E2A7D
:04012400E2D712000C
:10012800000160514624036E046A000E04222FD099
:100138003EC0C9FF6FD03FC000F0016A00C0C9FFD0
:1001480069D040C0C9FF66D041C000F0016A00C054
:10015800C9FF60D042C0C9FF5DD043C000F0016A4A
:1001680000C0C9FF57D044C0C9FF54D045C000F0F3
:10017800016A00C0C9FF4ED02FC0C9FF4BD032C0A2
:10018800C9FF48D0010EC96E45D0C96A43D0000ED8
:10019800041802E1000E0318CBE0000E041802E177
:1001A800010E0318C8E0000E041802E1020E03183D
:1001B800C8E0000E041802E1030E0318C5E0000EA3
:1001C800041802E1040E0318C5E0000E041802E149
:1001D800050E0318C2E0000E041802E1060E03180B
:1001E800C2E0000E041802E1070E0318BFE0000E7B
:1001F800041802E1080E0318BFE0000E041802E11B
:10020800090E0318BCE0000E041802E1C00E031822
:0E021800B9E0BBD736C034F037C035F0120065
:100226005E6A5E6A3104016E026A000E025A800E30
:10023600006E800E0218005C02E101505E5CD8B0D0
:10024600BCD05E504624046E056A000E052287D097
:100256005E50010F006E016A000E0122460E002458
:10026600026E000E0120036E0BD0010E326E17D007
:100276002BC02CF0010E2D6E020E326E10D00FD058
:1002860002C0E9FF03C0EAFFEE50010AEEE002C039
:10029600E9FF03C0EAFFEE50020AEAE0F0D78BD08E
:1002A6005E50010F006E016A000E0122460E002408
:1002B600E96E000E0120EA6EEE50000A000ED8A488
:1002C600010E2F6E78D05E50010F006E016A000E8F
:1002D6000122460E0024E96E000E0120EA6EEECFE2
:1002E6002EF069D05E50010F006E016A000E0122E9
:1002F600460E0024E96E000E0120EA6EEECF20F0D5
:100306005AD05E50010F006E016A000E0122460EA1
:100316000024E96E000E0120EA6EEECF21F04BD0EC
:100326005E50010F006E016A000E0122460E002487
:10033600E96E000E0120EA6EEECF22F03CD05E5050
:10034600010F006E016A000E0122460E0024E96EBE
:10035600000E0120EA6EEECF2BF02DD02CD0000E31
:10036600051802E1000E0418D8B472D7000E05185D
:1003760002E1010E041894E0000E051802E1020ED7
:100386000418A1E0000E051802E1030E0418AAE005
:10039600000E051802E1040E0418B3E0000E05185D
:1003A60002E1050E0418BCE0000E051802E1060E77
:0C03B6000418C5E0D3D75E2A35D712002A
:1003C2009388938C9D869E96A186A196720EC86E86
:1003D200FF0E6F6EC78EC78CC56AC59EC580C69E4E
:1003E200C69CC688C696C684C682C690C68A1200B5
:1003F2000900F5CFE6FF0006FBE10106F9E1120074
:10040200F00E7E6E6D6A6B6AFF0E926E929092840F
:100412009298929A9292F19E7784938A939EFF0E7B
:0C042200946E948094829484948612005E
:10042E00260E0001616F000E626F5F0E636F000E8D
:10043E00646FC26A3A1C006E0050C116070EC012DD
:06044E00C08EC280120006
:10045400300EB16EA1923C0EB36EB00EB26EA0928D
:02046400120084
:10046600850ED56E0B0ED76EDC0ED66EF29A120086
:1004760000C01FF0F2A43ED03250030A12E12A5007
:10048600000802E22A060DD02950000804E22906D7
:100496003B0E2A6E06D02850000803E228063B0EC3
:1004A600296E3250020A04E12C500008D8A02C060E
:1004B6003250010A19E1000E006E3550005C02E16F
:1004C6003450000805E2010E345E000E355A0CD099
:1004D600206A216A020E226E0A0E2C6E020E326EFF
:1004E60036C034F037C035F00B0ED76EDC0ED66E44
:1004F600F29423D0A1A221D02F50010A0AE13D5047
:10050600000803E289983D0603D089882EC03DF095
:1005160001D089982450010A02E1898009D0385017
:10052600000803E28990380603D0898039C038F084
:100536003C0EB36EB00EB26EA1921FC000F0110059
:10054600D2EC03F0720ED36E59DF38DF89DF7FDF1E
:100556006BDF899089928998899A306AB886B06AE1
:10056600220EAF6EAC8490DD150E0B6E4B0E0C6E2C
:10057600BE0E0D6E0D2EFED70C2EFCD70B2EFAD707
:100586000000F09CD08E9F96F28EF28CF28EF28C4A
:10059600F28AD58EA082B1805ADDA1DD71D0899A0A
:1005A600320E396E2F6A80B404D03306010E246EE3
:1005B60005D0040E336E246A010E236E2350010A01
:1005C60009E13350000A06E1040E336E010E326E65
:1005D600236A246A62D0898A3050010A03E1050E33
:1005E600396E02D0140E396E80B404D03306010E73
:1005F600246E05D0040E336E246A010E236E23503A
:10060600010A08E13350000A05E1040E336E326A2E
:10061600236A246A42D0898A010E396E2C50000A58
:100626001CE1256A030E255C14E2280EE16E000E1D
:10063600E26E2550E126D8B0E22A200EE96E000EC1
:10064600EA6E2550E926D8B0EA2AEECFE6FF252A3B
:10065600E9D7030E326E2BC02CF01FD0899A580EA4
:10066600396E2850000A08E12950000A05E12A508F
:10067600000A02E1010E326E10D0010E326E0DD06C
:100686003250000A8CE03250010AA5E03250020ACC
:10069600C2E03250030AE2E0F0D7266A276A270E44
:1006A600275C02E1100E265C0FE2420E0D6E0D2E47
:1006B600FED700003150010804E2C7A802D0B0DD21
:0C06C600316A264A272AEBD767D7FFD7F6
:1006D20000C01CF001C01BF002C01AF003C019F0E8
:1006E20004C018F0E1CF1DF0E2CF1EF0156ED8CF96
:1006F20016F0E0CF17F09EA630D0C6BC03D0C6BE1F
:1007020001D004D0C69CC69EC9CF3BF0C7B41AD054
:10071200C7B817D0C7BA04D0316AC9CF3BF011D0DD
:10072200080E315C0CE2460EE16E000EE26E3150B4
:10073200E126D8B0E22AC9CFE6FF312A02D0C9CFDA
:100742003BF009D0C7BA03D03C6AC9CF3BF03CC0EA
:1007520060F0E9DC3C2AC6889E961750E06E16507F
:10076200D86E153A15381CC000F01BC001F01AC033
:1007720002F019C003F018C004F01DC0E1FF1EC052
:04078200E2FF100082
:1007A40010EE20F01E0E006E010E016E860EF66E27
:0E07B400070EF76E000EF86EF9EC01F0120061
:030786000000056B
:01078900016E
:01078A00006E
:01078B00006D
:02078C0000006B
:03078E0000000563
:010791003C2B
:010792003C2A
:010793000065
:010794001450
:010795000063
:010796000062
:010797000061
:010798000060
:01079900045B
:02079A00100E3F
:02079C00100E3D
:01079E0064F6
:01079F0064F5
:0107A0003028
:0107A1000057
:0107A2000056
:0107A3001441
:020000040030CA
:0D000100281F1EFF0881FF03C003E003401D
:00000001FF
