:1000000015EF01F000000000CAEF00F00000000052
:0C001000000000000000000067EF01F09D
:10001C00FF0E346EFF0E356EFF0E366EFF0E376E12
:10002C00FF0E3C6EFF0E3D6E000E3E6E000E3F6EE0
:10003C00FF0E386EFF0E396E000E3A6E000E3B6EE0
:10004C00FF0E286EFF0E296E000E2A6E000E2B6E10
:10005C00AC8A900EAB6E938A938E9EAA03D0AECFD1
:06006C0000F0FBD71200BA
:10007200010ECD6E9E90FF0ECF6E880ECE6E9D90BD
:06008200C00EF26E120038
:04008800C96A12002F
:10008C00406A416A010E406E1C50405C3FE2405099
:10009C002C24006E0004016E01C041F0030E015CC3
:1000AC0033E22C0EE96E000EEA6E4050E926D8B011
:1000BC00EA2A6E0EEE5C1EE32C0EE96E000EEA6E62
:1000CC004050E926D8B0EA2AEE50BE0813E31F0EC2
:1000DC00E16E000EE26E4150E126D8B0E22A2C0E01
:1000EC00E96E000EEA6E4050E926D8B0EA2AEECF4F
:1000FC00E6FF0AD01F0EE16E000EE26E4150E126C3
:10010C00D8B0E22A960EE66E402ABED7030E1E6EBB
:02011C001200CF
:10011E00850ED56E0B0ED76EDC0ED66EF29A1200D1
:10012E000900F5CFE6FF0006FBE10106F9E112003A
:10013E00FF0E7E6E6D6A6B6A806A896AFF0E926E22
:10014E009294F296F18E939A939EFF0E946E9490E3
:06015E009492949412003B
:100164009388938C9D869E96A186A196400EC86E18
:10017400FF0E6F6EC78EC78CC56AC59EC580C69EAE
:10018400C69CC688C686C684C682C690C68A120025
:1001940000C01BF09EA030D0000E271802E1000E14
:1001A40026180EE18B808B828B84D00E266E070E70
:1001B400276E1FC023F020C025F021C024F016D0E4
:1001C400010E265E000E275A2350000A02E18B908E
:1001D40001D023062550000A02E18B9201D02506A6
:1001E4002450000A02E18B9401D02406FF0ECF6E46
:1001F400880ECE6E9E9014D0F2A412D01E50000829
:1002040002E21E0608D0960E1F6E960E206E960E03
:10021400216E030E1E6E0B0ED76EDC0ED66EF2949C
:060224001BC000F01100F8
:10022A001C6A1D6A030E1E6E960E1F6E960E206EB7
:10023A00960E216E226A236A246A256AD00E266ED9
:10024A00070E276E77DF89DF65DF0EDFB886B06AB3
:10025A008A0EAF6EAC84DDDE8B6AF28AD58E9D8003
:10026A00CD80F08C9F96D08EF28EF28CF28EF28C2C
:10027A008984A30E0B6E570E0C6E020E0D6E0D2E98
:10028A00FED70C2EFCD70B2EFAD700001F50960A69
:10029A0007E12050960A04E12150960A01E102D0B2
:1002AA00898401D08994150E0B6E4B0E0C6EBE0E0E
:1002BA000D6E0D2EFED70C2EFCD70B2EFAD7000092
:0402CA00E5D7FFD79E
:1002CE0000C01AF001C019F00DC018F0156ED8CF8D
:1002DE0016F0E0CF17F09EA63DD0C6BC03D0C6BE2A
:1002EE0001D004D0C69CC69EC9CF1DF0C7B427D07E
:1002FE00C7B817D0C7BA04D01C6AC9CF1DF011D029
:10030E00080E1C5C0CE22C0EE16E000EE26E1C5010
:10031E00E126D8B0E22AC9CFE6FF1C2A02D0C9CF07
:10032E001DF01C5001080AE29F0E0D6E0D2EFED719
:10033E0000000000C7A802D0A2DE1C6A09D0C7BA0E
:10034E0003D0226AC9CF1DF022C040F096DE222AC9
:10035E00C6889E961750E06E1650D86E153A153810
:0E036E001AC000F019C001F018C00DF0100008
:020000040030CA
:0D000100321F1EFF0881FF03C003E0034013
:00000001FF
