:10000000DCEF03F00000000091EF03F000000000BF
:0C00100000000000000000005FEF04F0A2
:10001C000B6A0A6A096A00500402F4CF09F0F3CFA4
:10002C0008F001500502F4CF0BF0F3CF0AF00050AA
:10003C000502F3500926F4500A22E86A0B220150FB
:10004C000402F3500926F4500A22E86A0B2208C075
:10005C0000F009C001F00AC002F00BC003F012005E
:10006C00CB50010F006E016A000E01225EC004F03D
:10007C00000E056ECDDF060E026E00C004F001C04E
:10008C0005F0025005E005320432059EFF0FFAD749
:10009C00040E016E04C000F0015004E00036009024
:1000AC00FF0FFBD7300E0014036E04C000F005C028
:1000BC0001F001320032019E01320032019E00C07B
:0C00CC00BEFF0F0EBD160350BD12120047
:1000D8003A507F0A06E07F0E5E6EC4DF7F0E3A6EEE
:0400E800828C1200F4
:1000EC003950000A0FE02550010A04E17F0E5D5CD7
:1000FC0001E308D02450010A04E15D507F0801E3BC
:10010C0001D019D0E3DF3450010A14E132502E5CD7
:10011C0008E131502D5C05E130502C5C02E12F5090
:10012C002B5C02E2829C06D0010E2F26000E3022A0
:10013C00312232220DD03A505D180AE02F6A306A13
:10014C00316A326A5DC03AF05DC05EF089DF828C44
:02015C0012008F
:10015E00016A80B8012A01C002F0000E036E023659
:10016E0002900336006A80B4002A000E016E02501F
:10017E0000120350011200C004F039D00450010ADD
:10018E0005E1010E375E000E385A05D00450020A02
:10019E0002E1374A382A38D00450030A05E1010E2D
:1001AE00375E000E385A05D00450000A02E1374A75
:1001BE00382A2AD00450000A05E1010E375E000EDF
:1001CE00385A05D00450030A02E1374A382A1CD0A7
:1001DE000450010A03E1374A382A07D00450020AB4
:1001EE0004E1010E375E000E385A0ED00DD040508D
:1001FE00000AC4E04050010ACFE04050020ADAE0A3
:10020E004050030AE5E0F2D7405004180AE038C027
:10021E0000F0000E38BEFF0E016E00C0ADFF37C0FD
:08022E00ADFF04C040F0120016
:0A02360059507F0F5D6E57DF120074
:0A02400059507F085D6E52DF120076
:10024A005F504524056E066A000E06226CD037C040
:10025A00C9FFA6D038C000F0000E38BEFF0E016EEE
:10026A0000C0C9FF9DD0010E2514036E010E24148F
:10027A00026E02C000F00036009000500310046EB7
:10028A00030E3314036E03C000F0000E016E003635
:10029A000090013600360090013600500412010E1B
:1002AA003914036E040E026E03C000F0000E016ED4
:1002BA00025005E0003600900136FF0FFAD70050D1
:1002CA000412006A82BC002A010E0014036E050E95
:1002DA00026E03C000F0000E016E025005E0003607
:1002EA0000900136FF0FFAD700500410C96E58D09B
:1002FA0035C0C9FF55D036C000F0000E36BEFF0E1D
:10030A00016E00C0C9FF4CD03AC0C9FF49D027C00E
:10031A00C9FF46D0C96A44D028C0C9FF41D0C96ABA
:10032A003FD0C96A3DD0000E061802E1000E05183A
:10033A008EE0000E061802E1010E05188BE0000E91
:10034A00061802E1020E05188EE0000E061802E1F8
:10035A00030E0518CDE0000E061802E1040E05187A
:10036A00CAE0000E061802E1050E0518CDE0000EDF
:10037A00061802E1060E0518CAE0000E061802E188
:10038A00070E0518C7E0000E061802E1080E051848
:10039A00C3E0000E061802E1090E0518C0E0C1D735
:0203AA0012003F
:1003AC005F6A3E04006E016A000E015A00C009F03B
:1003BC005F6A09505F5CD8B028D15F504524076E46
:1003CC00086A000E0822E1D0336A1DD15F50010F7C
:1003DC00006E016A000E0122450E0024E96E000E2B
:1003EC000120EA6EEE50000A000ED8A4010E396E00
:1003FC000AD15F50010F006E016A000E0122450EFA
:10040C000024E96E000E0120EA6EEE50000A000E88
:10041C00D8A4010E006E00B002D0829C01D0828C58
:10042C00F2D05F50010F006E016A000E0122450EE2
:10043C000024E96E000E0120EA6EEE50000A000E58
:10044C00D8A4010E006E00B002D0829001D0828040
:10045C00DAD05F50010F006E016A000E0122450ECA
:10046C000024E96E000E0120EA6EEECF26F0CBD010
:10047C005F50010F006E016A000E0122450E002430
:10048C00E96E000E0120EA6EEECF34F0BCD0020E05
:10049C005F24016E026A000E0222800E006E800E36
:1004AC000218005C02E10150095C2DE35F50010F62
:1004BC00056E066A000E0622450E0524E96E000E36
:1004CC000620EA6EEECF04F0020E5F24006E016A85
:1004DC00000E0122450E0024E96E000E0120EA6E8A
:1004EC00EECF03F003C001F0006A00500410356E2B
:1004FC00000E0110366E3536359036363536359061
:10050C00363605C05FF07FD0020E5F24016E026AA2
:10051C00000E0222800E006E800E0218005C02E1BA
:10052C000150095C10E35F50010F006E016A000E70
:10053C000122450E0024E96E000E0120EA6EEECF7A
:10054C0027F000C05FF05FD0020E5F24016E026ADC
:10055C00000E0222800E006E800E0218005C02E17A
:10056C000150095C10E35F50010F006E016A000E30
:10057C000122450E0024E96E000E0120EA6EEECF3A
:10058C0028F000C05FF03FD03ED0000E081802E10A
:10059C00010E0718D8B418D7000E081802E1020E85
:1005AC000718D8B413D7000E081802E1030E071869
:1005BC00D8B41FD7000E081802E1040E0718D8B4DF
:1005CC0030D7000E081802E1050E0718D8B441D731
:1005DC00000E081802E1060E0718D8B449D7000E11
:1005EC00081802E1100E0718D8B451D7000E0818DD
:1005FC0002E1120E071888E0000E081802E1140E32
:10060C000718A2E0C1D75F2AD4D63DC03FF0120034
:10061C009388938C9D869E96A186A196700EC86E2B
:10062C00FF0E6F6EC78EC78CC56AC59EC580C69EF1
:10063C00C69CC688C686C684C682C690C68A120068
:10064C00850ED56E0B0ED76EDC0ED66EF29A12009E
:10065C007E6A7F6A6D6A6B6A9280928292849288BB
:10066C00929AF19E77807782939A939EFF0E946E66
:10067C00949094949498949A949C949E829C120036
:10068C000900F5CFE6FF0006FBE10106F9E11200D7
:10069C00FF0E516EFF0E526EFF0E536EFF0E546E18
:1006AC00FF0E556EFF0E566E000E576E000E586EF6
:1006BC00FF0E4D6EFF0E4E6E000E4F6E000E506E06
:1006CC00FF0E416EFF0E426E000E436E000E446E26
:1006DC00AC8A900EAB6E938A938E9EAA03D0AECF4B
:0606EC0000F0FBD7120034
:1006F20080B004D0010E256E828002D0256A8290DD
:0E07020080B203D0010E246E01D0246A1200D2
:08071000BE6ABD98BD9A1200FB
:0A071800949ACA840C0EBD12120060
:1007220000C023F00CC022F00DC021F0F2A215D0BF
:1007320080B011D00B0E0C6E620E0D6E0D2EFED718
:100742000C2EFCD7000080B006D0010E256E320EB2
:10075200BE6E000EBF6EF29227D0F0A015D080B20E
:1007620011D00B0E0C6E620E0D6E0D2EFED70C2EDE
:10077200FCD7000080B206D0010E246E320EBE6E8F
:10078200000EBF6EF09010D0F2A40ED03F500008C1
:1007920002E23F0604D0356A366A3DC03FF00B0ED6
:1007A200D76EDC0ED66EF29423C000F022C00CF09D
:0607B20021C00DF0110052
:1007B800DCEC04F0720ED36E4DDF2CDF43DFF19CCE
:1007C800F288F292F19AF086F090F08C9F96D08E93
:1007D800F28EF28CF28EF28CF28AD58ECA80CA9290
:1007E800630ECB6E91DF829C320EBE6E000EBF6E22
:1007F8007F0E3A6E8DDFB886B06A220EAF6EAC847B
:1008080049DF030E0B6E080E0C6E770E0D6E0D2E63
:10081800FED70C2EFCD70B2EFAD767DF43D0828485
:100828002550010A12E1010E336E000E80B8010E48
:10083800406E40364090006A80B4002A0050401252
:10084800376A386A356A366A03D028C059F0EFDC4F
:1008580030D081DC82943750355C016E3850365880
:10086800026E01C029F002C02AF0800E006E800ED0
:100878000218005C02E10150265C04E227C059F02E
:10088800DBDC0ED0800E2A18006E800E005C02E1C0
:100898002650295C04E228C059F0C9DC01D018DCD4
:1008A80008D007D03350000ABAE03350010AD1E02B
:0608B800F8D7B3D7FFD70B
:1008BE0000C020F001C01FF002C01EF003C01DF0EA
:1008CE0004C01CF005C01BF008C01AF009C019F0D6
:1008DE000DC018F0156ED8CF16F0E0CF17F09EA60B
:1008EE003DD0C6BC03D0C6BE01D004D0C69CC69EA9
:1008FE00C9CF3BF0C7B427D0C7B817D0C7BA04D0FA
:10090E003E6AC9CF3BF011D0080E3E5C0CE2450E9C
:10091E00E16E000EE26E3E50E126D8B0E22AC9CF5B
:10092E00E6FF3E2A02D0C9CF3BF03E5001080AE254
:10093E00270E0D6E0D2EFED700000000C7A802D0A8
:10094E002EDD3E6A09D0C7BA03D03C6AC9CF3BF050
:10095E003CC05FF073DC3C2AC6889E961750E06E52
:10096E001650D86E153A153820C000F01FC001F091
:10097E001EC002F01DC003F01CC004F01BC005F029
:0E098E001AC008F019C009F018C00DF01000D2
:1009B80010EE24F01C0E006E010E016E9C0EF66EF9
:0E09C800090EF76E000EF86E46EC03F01200FA
:01099C00005A
:01099D000059
:01099E000355
:01099F003225
:0109A0003224
:0209A100000054
:0409A30050C300003D
:0409A700000000004C
:0109AB00004B
:0109AC000149
:0209AD00000048
:0209AF00000046
:0109B1000144
:0109B2007FC5
:0109B3000043
:0109B4000042
:0109B5003C05
:0109B6000040
:0109B7003C03
:020000040030CA
:0D000100281F1EFF0880FF03C003E003401E
:00000001FF
